:100000000C9478030C94A0030C94A0030C94A0030C
:100010000C94A0030C94A0030C94A0030C94A003D4
:100020000C94A0030C94A0030C9479090C94E80997
:100030000C94A0030C94A0030C94A0030C94A003B4
:100040000C94A0030C94A0030C94A0030C94A003A4
:100050000C94A0030C94A0030C94A0030C941A0C11
:100060000C94A0030C94A0030C94A0030C94A00384
:100070000C94A0030C94A0030C94A0030C94A00374
:100080000C94A0030C94A0030C94A0030C94A00364
:100090000C94A0030C94A0030C94A0030C94A00354
:1000A0000C94A0030C94A0030C94A0030000000087
:1000B000003E5B4F5B3E3E6B4F6B3E1C3E7C3E1CEE
:1000C000183C7E3C181C577D571C1C5E7F5E1C0034
:1000D000183C1800FFE7C3E7FF0018241800FFE7EB
:1000E000DBE7FF30483A060E2629792926407F05AE
:1000F0000507407F05253F5A3CE73C5A7F3E1C1CC4
:1001000008081C1C3E7F14227F22145F5F005F5F83
:1001100006097F017F006689956A6060606060946F
:10012000A2FFA29408047E040810207E2010080874
:100130002A1C08081C2A08081E101010100C1E0C7F
:100140001E0C30383E3830060E3E0E060000000011
:100150000000005F00000007000700147F147F14F8
:10016000242A7F2A1223130864623649562050003D
:1001700008070300001C2241000041221C002A1C29
:100180007F1C2A08083E0808008070300008080814
:100190000808000060600020100804023E51494534
:1001A0003E00427F400072494949462141494D3352
:1001B0001814127F1027454545393C4A49493141B9
:1001C000211109073649494936464949291E000087
:1001D00014000000403400000008142241141414DC
:1001E0001414004122140802015909063E415D59C8
:1001F0004E7C1211127C7F494949363E41414122D1
:100200007F4141413E7F494949417F090909013EFA
:10021000414151737F0808087F00417F4100204021
:10022000413F017F081422417F404040407F021C33
:10023000027F7F0408107F3E4141413E7F0909094A
:10024000063E4151215E7F09192946264949493216
:1002500003017F01033F4040403F1F2040201F3FDC
:100260004038403F63140814630304780403615961
:10027000494D43007F4141410204081020004141A3
:10028000417F04020102044040404040000307084F
:100290000020545478407F2844443838444444284B
:1002A000384444287F385454541800087E090218F2
:1002B000A4A49C787F0804047800447D400020407A
:1002C000403D007F1028440000417F40007C0478BE
:1002D00004787C080404783844444438FC18242406
:1002E0001818242418FC7C08040408485454542486
:1002F00004043F44243C4040207C1C2040201C3C03
:100300004030403C44281028444C9090907C4464F9
:10031000544C44000836410000007700000041368C
:10032000080002010204023C2623263C1EA1A16112
:10033000123A4040207A3854545559215555794144
:100340002154547841215554784020545579400C1B
:100350001E527212395555555939545454593955FC
:100360005454580000457C410002457D420001453F
:100370007C40F0292429F0F0282528F07C545545AC
:10038000002054547C547C0A097F4932494949323F
:100390003248484832324A4848303A4141217A3A54
:1003A00042402078009DA0A07D39444444393D401E
:1003B00040403D3C24FF2424487E4943662B2FFCCB
:1003C0002F2BFF0929F620C0887E09032054547979
:1003D000410000447D413048484A32384040227A4A
:1003E000007A0A0A727D0D19317D2629292F2826C7
:1003F0002929292630484D402038080808080808CF
:100400000808382F10C8ACBA2F102834FA00007B27
:10041000000008142A142222142A1408950022002D
:1004200095AA005500AAAA55AA55AA000000FF00E7
:10043000101010FF00141414FF001010FF00FF1024
:1004400010F010F0141414FC001414F700FF000056
:10045000FF00FF1414F404FC141417101F10101FD5
:10046000101F1414141F00101010F0000000001FC3
:10047000101010101F10101010F010000000FF10CE
:100480001010101010101010FF10000000FF1400CA
:1004900000FF00FF00001F10170000FC04F41414FC
:1004A0001710171414F404F40000FF00F7141414C8
:1004B00014141414F700F7141414171410101F1048
:1004C0001F141414F4141010F010F000001F101F6B
:1004D0000000001F14000000FC140000F010F010D9
:1004E00010FF10FF141414FF141010101F00000050
:1004F00000F010FFFFFFFFFFF0F0F0F0F0FFFFFF54
:100500000000000000FFFF0F0F0F0F0F38444438AA
:10051000447C2A2A3E147E02020606027E027E02E5
:1005200063554941633844443C04407E201E200604
:10053000027E020299A5E7A5991C2A492A1C4C7241
:1005400001724C304A4D4D303048784830BC625AC8
:10055000463D3E494949007E0101017E2A2A2A2A58
:100560002A44445F444440514A444040444A514034
:100570000000FF0103E080FF000008086B6B0836F5
:1005800012362436060F090F060000181800000066
:100590001010003040FF0101001F01011E00191D55
:1005A0001712003C3C3C3C000000000000B0000082
:1005B000A170E150964F26900F1D070C0096690020
:1005C0004AE44A0048444000806810000F99FB8FBD
:1005D0009DBDBBFB77D4D4DF1F1A1AFE7F5D5DFF84
:1005E000805A0000A0A4AA0010BA3400FF5953F3A7
:1005F000FF9B9B9EFFB9B996FF9595D19FF4940FF1
:10060000FC295F91FF1838F8FF9294FFFF95D5F70A
:10061000BFB5DDD7F18F81F1F788C8F779C6467984
:1006200009FD9B090196F800828182805071620069
:100630007756560076763700A2B773010772060028
:100640007827500073347400775176007F55F70097
:1006500047711000324772007364730015A2750071
:1006600061679400009F6060F4F2F6F2D5F08D149B
:10067000A1C881CFD9F1AF2000080B00020202000F
:100680000009040000010202000005240010010519
:100690002401010104240206052406000107058146
:1006A0000310004009040100020A000000070502CF
:1006B0000240000007058302400000040309041201
:1006C000010002EF020140412336800001010203D4
:1006D0000141726475696E6F204C4C430041726435
:1006E00075696E6F204C656F6E6172646F00640C8B
:1006F00011241FBECFEFDAE0DEBFCDBF12E0A0E0D5
:10070000B1E0E6E2F5E202C005900D92A430B10737
:10071000D9F726E0A4E0B2E001C01D92AE3AB207DC
:10072000E1F713E0C8E7D3E004C02197FE010E947F
:100730008B12C737D107C9F70E94A40C0C949112F1
:100740000C940000E5E9F2E080E0A0E0B8E0008071
:100750000EBC8111012C1197A0FDFDCF0192B9F7BC
:100760000DB40895AC014770552721E001C0220F58
:100770004A95EAF7FC0183E0F595E7958A95E1F75C
:10078000F695FE2FEE27F795E795EB56FD4F91E88E
:10079000915031F08191DF011197822B8C93F8CF2A
:1007A0000895FC0180914402882311F13FB7F89429
:1007B00082E08093E9002091F200822F90E01816E9
:1007C000190614F481E090E0882339F0289844E673
:1007D000409343024091F1004083222339F020915D
:1007E000F200211103C02BE62093E8003FBF0895DB
:1007F0008FEF9FEF08952FB7F89483E08093E9007F
:100800009091E800892F807295FF04C09091F200CA
:1008100080E4891B2FBF089580913B0281110DC098
:1008200082E08093370284E08093380210923A028B
:100830001092390281E080933B0287E392E00895B1
:10084000CF93DF931F92CDB7DEB76983DC01ED91C3
:10085000FC910280F381E02D41E050E0BE016F5F2A
:100860007F4F09950F90DF91CF91089583E080939A
:10087000E9008091F200882319F08AE38093E80070
:1008800008950E94FB0390E00895CF93DF931F9299
:10089000CDB7DEB7FC018485958597FD08C02FEFA5
:1008A0003FEF358724870F90DF91CF910895CE01D8
:1008B00001960E94D103019719F4898190E0F3CF4A
:1008C0008FEF9FEFF0CF0F931F93CF93DF931F9284
:1008D000CDB7DEB78C01FC018485958597FF0BC0F1
:1008E000CE0101960E94D103019771F4898190E0B5
:1008F000F80195878487F801848595850F90DF91AD
:10090000CF911F910F9108958FEF9FEFF1CFFC01D1
:100910008485958597FD0BC09FB7F89482E08093FE
:10092000E9008091F2009FBF90E0019608959FB783
:10093000F89482E08093E9008091F2009FBF90E0FC
:100940000895409131025091320220912F0230914E
:10095000300242175307B4F49091E8009570E1F328
:100960009091E80092FD19C08093F10080913102CE
:100970009091320201968F739927892B19F48EEF8B
:100980008093E80080913102909132020196909319
:1009900032028093310281E0089580E00895EF9261
:1009A000FF920F931F93CF93DF93F82E192FE62E0C
:1009B000042F81E0860F880F0E94A10483E00E942B
:1009C000A104CF2DD12FEC0EFD2EF11CCE15DF058D
:1009D000B9F007FF13C0FE0184910E94A104182FF3
:1009E00080E00E94A104812321968111EFCFDF9145
:1009F000CF911F910F91FF90EF9008958881EDCFD7
:100A000081E0F5CFDF92EF92FF920F931F93CF9388
:100A1000DF93D82E8A01EB017B01E40EF51ECE1583
:100A2000DF0559F0D7FE12C0FE0184910E94A10497
:100A300021968111F4CF0FEF1FEFC801DF91CF9105
:100A40001F910F91FF90EF90DF9008958881EECF76
:100A50000F931F93CF93DF931F92CDB7DEB782E042
:100A6000898342E450E069E776E080E80E9402056D
:100A70000E940C04DC0112960D911C9101151105C8
:100A800089F0D801ED91FC910280F381E02DBE0147
:100A90006F5F7F4FC801099597FD04C0F80100857D
:100AA0001185ECCF89810F90DF91CF911F910F912C
:100AB0000895615030F02091F100FC0120830196EF
:100AC000F8CF289884E68093430208953FB7F894BE
:100AD00080912B0290912C02A0912D02B0912E02B8
:100AE00026B5A89B05C02F3F19F00196A11DB11D89
:100AF0003FBFBA2FA92F982F8827BC01CD01620FC5
:100B0000711D811D911D42E0660F771F881F991F7F
:100B10004A95D1F708958F929F92AF92BF92CF924C
:100B2000DF92EF92FF926B017C010E9466054B0100
:100B30005C01C114D104E104F104B9F00E9466051E
:100B4000681979098A099B09683E734081059105F6
:100B500080F321E0C21AD108E108F10888EE880E7E
:100B600083E0981EA11CB11CE4CFFF90EF90DF90B2
:100B7000CF90BF90AF909F908F90089565E070E008
:100B800080E090E00C948B058F929F92AF92BF9281
:100B9000CF92DF92EF92FF920F931F93CF93DF9349
:100BA0006C017B018A0180910B01882309F45CC0F0
:100BB00080914402882309F457C08091360280FF57
:100BC00005C08091E00082608093E000E801B12CD4
:100BD0008AEFA82E93E0892E2AE3922E209711F413
:100BE000BB20D9F10E94FB0381110AC0AA94AA205C
:100BF000D9F161E070E080E090E00E948B05EECFDB
:100C00008C171D0611F00CF08C2F9FB7F894809272
:100C1000E9002091E80025FD02C09FBFDFCF282F0B
:100C200030E0C21BD30BF701815020F0419140937B
:100C3000F100FACFE20EF31EBB2021F09092E80003
:100C4000B12CEBCF8091E80085FDE7CF9092E800D2
:100C5000BB24B394209709F3F3CF5D9884E6809387
:100C60003502101611063CF081E090E0F601938306
:100C7000828310E000E0C801DF91CF911F910F91B6
:100C8000FF90EF90DF90CF90BF90AF909F908F90AC
:100C90000895AF92BF92CF92DF92EF92FF920F939F
:100CA0001F93CF93DF936C017B018B01040F151F02
:100CB000EB015E01AE18BF08C017D10759F069916A
:100CC000D601ED91FC910190F081E02DC6010995CE
:100CD000892B79F7C501DF91CF911F910F91FF907B
:100CE000EF90DF90CF90BF90AF9008956F927F927A
:100CF0008F929F92AF92BF92CF92DF92EF92FF922C
:100D00000F931F93CF93DF934C017B01C22F102FC2
:100D100098E0A92EB12C642E669466946694712C8A
:100D2000CA0187709927892B79F5D40117962D91DF
:100D30003C91C7019927B9010E946312269DF001D9
:100D4000279DF00D369DF00D11248E0F9F1FD401AD
:100D50001596ED91FC91E80FF91F2081111112C039
:100D6000C095C223C083DF91CF911F910F91FF9057
:100D7000EF90DF90CF90BF90AF909F908F907F903B
:100D80006F900895C22BEECFD0E04770C42ED12CC7
:100D900083E0660C771C8A95E1F79E0101C0220F63
:100DA0004A95EAF7012FA301B701C4010E94760614
:100DB000A301485F5F4FC5018C199D0902C0D595FD
:100DC000C7958A95E2F7A7CF5F926F927F928F9235
:100DD0009F92AF92BF92CF92DF92EF92FF920F93CA
:100DE0001F93CF93DF93EC016A30F1F48D859E85DC
:100DF0009C878B878C892F853889820F932F911D33
:100E0000988B8F8781E090E0DF91CF911F910F91B8
:100E1000FF90EF90DF90CF90BF90AF909F908F901A
:100E20007F906F905F900895AB84BC84693031F4FB
:100E300029E0A20EB11CBC86AB86E4CF3DEFA31621
:100E40003FEFB3060CF45DC08F819885A816B906F4
:100E50000CF057C0CF84D8888DEFC8168FEFD80616
:100E60000CF44FC089859A85C816D9060CF049C084
:100E7000603208F46FE780EE860F9FE9960F9A3193
:100E800018F49FEFC91AD90A8C3011F08B3119F47C
:100E90002FEFC21AD20A869534E0839FC001112435
:100EA0009C0124553A4F7901912C812C162F1170F9
:100EB000F701E80DF91D549011112DC0352D3F702B
:100EC000532E3501680C791C8C81882361F001E078
:100ED00089899A89892B09F000E02FE0A601B301E6
:100EE000CE010E9476060989252DA601B301CE0107
:100EF0000E9476068FEF881A980A94E0891691046A
:100F0000B9F68B8990E004962B853C85820F931F60
:100F10009C878B8777CF52948FE05822D2CF20E1E5
:100F200091E061FD94E060FD990F62FD9295687F0C
:100F3000269FD0011124A80FAB56BD4F8C9140FFC6
:100F400003C0892B8C93089590958923FBCF80E073
:100F5000E5E9F2E081118FEF002481938193819381
:100F600081930394D1F71092070210920602109217
:100F700009021092080208958F929F92AF92BF9239
:100F8000CF92DF92EF92FF920F931F93CF93DF9355
:100F90006D3089F0C0900602D09007026A30D1F41B
:100FA000109209021092080288E0C80ED11CD0925B
:100FB0000702C092060281E090E0DF91CF911F917D
:100FC0000F91FF90EF90DF90CF90BF90AF909F90E8
:100FD0008F9008950091080210910902E5E06E9F3C
:100FE000E0011124C455DF4F5801F12CF5E0E12C4C
:100FF000FF1629F0CE010196FE01E490EC01912C40
:10100000812CF0E8AF16B10458F4B601680D791DD3
:101010006034710528F44E2D4170C5010E948F0780
:10102000E6948FEF881A980AE8E08E16910449F743
:10103000F394FFEFAF1ABF0A86E0F812D7CF0A5F2A
:101040001F4F1093090200930802B5CF909104023C
:10105000982329F490910502982381E009F480E017
:101060000895089590E080E008958F929F92AF9246
:10107000BF920F931F93CF93DF93CDB7DEB7A197A6
:101080000FB6F894DEBF0FBECDBF19A2423008F4F0
:101090004AE08E010F5D1F4F842E912CB12CA12CA4
:1010A000A50194010E948F10E62FB901CA01EA3010
:1010B00044F5E05DD801EE938D01232B242B252BE5
:1010C00079F790E080E0109769F0FD010190002031
:1010D000E9F73197AF014A1B5B0BBD018AEA96E045
:1010E0000E944906A1960FB6F894DEBF0FBECDBF91
:1010F000DF91CF911F910F91BF90AF909F908F90F4
:101100000895E95CD7CFFC0101900020E9F7319701
:10111000AF01481B590BBC018AEA96E00C944906C2
:101120008CE591E00E94830881E791E00E948308AA
:1011300085E891E00E94830889E991E00E94830894
:1011400010922502109224020895CF92DF92EF921E
:10115000FF92CF93DF936C01990FEE08FF08F7FE23
:1011600019C06DE28AEA96E00E94BC07EC0166278E
:101170007727CB016C197D098E099F094AE00E94EF
:1011800035088C0F9D1FDF91CF91FF90EF90DF907E
:10119000CF9008954AE0C701B601DF91CF91FF904B
:1011A000EF90DF90CF900C943508CF93DF930E949F
:1011B000A70781E090E00E94B20382E190E00E94E4
:1011C000B20384E290E00E94B20386E390E00E94C2
:1011D000B203C1E0D0E041E0BE018AE290E00E94AB
:1011E0008F072196C733D105B1F7C1E0D0E041E0C8
:1011F000BE0184E590E00E948F072196C733D10598
:10120000B1F7E0911002F0911102EE0FFF1FE75EBF
:10121000FE4F818190E0208130E0309309022093DD
:1012200008029093070280930602E0911802F09161
:101230001902E05FFE4F60818AEA96E00E94BC07D7
:10124000109209021092080288E390E0909307023E
:1012500080930602809120029091210283309105B3
:10126000A4F4029779F48DEA91E00E9483080E9429
:10127000A20381E090E09093250280932402DF9105
:10128000CF91089582E092E0F0CF80EC91E00E944F
:10129000830880910F02882331F183EC91E00E9452
:1012A000830887EF91E00E94830880910E028823D3
:1012B000E9F083EC91E00E94830881E092E00E94D3
:1012C000830880912002909121020C9724F481ECF4
:1012D00091E00E9483088091200290912102029760
:1012E0000E94A508C4CF8AEC91E0D9CF8AEC91E0A6
:1012F000E2CF1F920F920FB60F9211248F939F93FC
:101300008091E1009091E100937F9093E10083FF51
:101310000FC01092E90091E09093EB001092EC0066
:1013200092E39093ED001092440298E09093F000C5
:1013300082FF22C093E09093E9009091F2009923FC
:1013400019F09AE39093E80090913502992341F0C7
:1013500090913502915090933502911101C05D9AA0
:1013600090914302992341F09091430291509093C0
:101370004302911101C0289A84FF18C08091E200B5
:101380008E7E81608093E2008091E1008F7E809369
:10139000E100809136028E7E8061809336029F91BB
:1013A0008F910F900FBE0F901F90189580FFF7CF71
:1013B0008091E2008E7E80618093E2008091E10066
:1013C0008E7E8093E100809136028E7E8160E5CF33
:1013D0001F920F920FB60F921124CF92DF92EF92CD
:1013E000FF920F931F932F933F934F935F936F93AE
:1013F0007F938F939F93AF93BF93EF93FF93CF937D
:10140000DF93CDB7DEB76C97DEBFCDBF1092E9009A
:101410008091E80083FF25C068E0CE0145960E94D8
:10142000590582EF8093E8008D8987FF39C090913C
:10143000E80090FFFCCF982F907609F034C19E8988
:101440004F89588D2F89F88C911131C0803861F502
:10145000809134028093F1001092F1008EEF80931E
:10146000E8006C960FB6F894DEBF0FBECDBFDF91DB
:10147000CF91FF91EF91BF91AF919F918F917F910C
:101480006F915F914F913F912F911F910F91FF901D
:10149000EF90DF90CF900F900FBE0F901F90189598
:1014A0009EEF9093E800C7CF1092F100D5CF913016
:1014B00059F48111D3CF4130510581F68091340226
:1014C0008D7F80933402CACF933049F48111C6CF07
:1014D0004130510519F6809134028260F2CF953087
:1014E00041F48091E80080FFFCCF20682093E30066
:1014F000B5CF963009F0A9C00B8D1C8D22E010925B
:10150000E9001092320210923102F2122EC01092B3
:10151000300210922F020E9428051F8299E09983C1
:10152000FA8291E09E8390EA98879AEF99872091BA
:10153000310230913202275F3F4F3C832B838D83F2
:101540001092E90010923202109231021093300290
:1015500000932F0249E050E0BE016F5F7F4F80E0B3
:101560000E9402050E94280579CF10933002009353
:101570002F020E940C04DC0112960D911C910115A2
:10158000110509F451C1D801ED91FC910480F58158
:10159000E02DBE016B5E7F4FC8010995009709F0F1
:1015A0003EC1F80100851185EACFF3E0FF120EC0BD
:1015B0008F89882309F440C0823061F440E860E1FB
:1015C0008DED96E00E94CF04811148CF81E2809397
:1015D000EB0047CF813029F440E86BE081ED96E0E5
:1015E000F1CF833099F70E940C04DC011296ED9044
:1015F000FC908E010F5F1F4F6801E114F10479F038
:10160000D701ED91FC910680F781E02DB801C7016B
:101610000995080F111DF701E084F184EECFD80180
:101620001C92F60101900020E9F73197BF016C1977
:101630007D0940E0C601C6CF6BEB76E0FB0144912B
:1016400050E080E80E94020509CF973009F4BECF30
:10165000983021F481E08093F10000CF993009F0B7
:10166000FDCE837009F0B2CFECE2F1E081E031E031
:1016700096E32191222371F08093E9003093EB00EF
:10168000DF0111972C912093EC009093ED008F5F78
:10169000873079F78EE78093EA001092EA008F890D
:1016A00080934402DBCE8B8D9C8D1092E9001092CA
:1016B0003202109231029093300280932F02898D72
:1016C000811192C08E899D89913A49F4813209F045
:1016D0007DCF47E050E064E071E080E0B3CF91322D
:1016E00009F074CF833269F48F89988DB0E0A0E05F
:1016F0008093000190930101A0930201B093030134
:10170000ADCE803269F48091E80082FFFCCF67E0C3
:1017100084E091E00E9459058BEF8093E8009ECE13
:10172000823209F09BCE8F8980930B01EEEFFFE7A9
:10173000859194918B3F9C4D51F1E0E0F8E08091D0
:10174000040190910501A0910601B0910701803B31
:101750009440A105B105F1F480910B0180FD1AC000
:10176000EE3F8AE0F80789F587E797E79183808362
:10177000809160008093330288E19BE00FB6F8947B
:10178000A895809360000FBE9093600067CEEEEF47
:10179000FAE0D5CF808191818737974709F05ECEF7
:1017A000A8958091600088618093600080913302E9
:1017B00080936000EE3F2AE0F20789F08091FE0AF4
:1017C0009091FF0A9183808349CE808191818737F0
:1017D000980751F29093FF0A8093FE0AC5CF1092AA
:1017E000FF0A1092FE0A3ACE0E940C04DC01129607
:1017F0000D911C910115110509F4E8CED801ED9168
:10180000FC910190F081E02DBE016B5E7F4FC8011D
:101810000995811123CEF80100851185EBCF1816AB
:1018200019060CF41BCED2CEF1E0FF12BECE6FEB48
:1018300076E004CF1F920F920FB60F9211242F93D0
:101840003F938F939F93AF93BF9380912702909183
:101850002802A0912902B0912A023091260223E0A9
:10186000230F2D3758F50196A11DB11D2093260297
:101870008093270290932802A0932902B0932A0212
:1018800080912B0290912C02A0912D02B0912E02FA
:101890000196A11DB11D80932B0290932C02A09361
:1018A0002D02B0932E02BF91AF919F918F913F91E6
:1018B0002F910F900FBE0F901F90189526E8230FC1
:1018C0000296A11DB11DD2CFE5E4F2E0138212828F
:1018D00088EE93E0A0E0B0E084839583A683B7838D
:1018E00086E391E0918380838FEF9FEF95878487D4
:1018F000EAEAF6E01382128284E591E09183808324
:10190000E5E9F6E01382128288E491E09183808316
:1019100085E992E09683858380E890E090878783CD
:1019200080E490E09287818785E0848B81E0838BDF
:1019300016861586108A17861486138681E090E035
:10194000928B818B14820895CF93DF9300D000D0C7
:10195000CDB7DEB7789484B5826084BD84B58160EC
:1019600084BD85B5826085BD85B5816085BD80916A
:101970006E00816080936E001092810080918100E2
:1019800082608093810080918100816080938100DA
:1019900080918000816080938000809191008260BE
:1019A000809391008091910081608093910080915B
:1019B00090008160809390008091C100846080934A
:1019C000C1008091C10082608093C1008091C100FC
:1019D00081608093C1008091C30081608093C300C7
:1019E0008091C00082608093C0008091C2008160BD
:1019F0008093C20080917A00846080937A00809105
:101A00007A00826080937A0080917A00816080936E
:101A10007A0080917A00806880937A001092440264
:101A200010923402109236028091D7008160809328
:101A3000D70080EA8093D80089B5806189BD89B5D7
:101A4000826089BD09B400FEFDCF61E070E080E0F6
:101A500090E00E948B058091D8008F7C80618093FC
:101A6000D8008091E000807F8093E0008091E100C9
:101A70008E7E8093E1008DE08093E200559A209A5B
:101A800081EC80937C0085B1806F85B984B1877EBD
:101A900084B984B1876E84B95E9A5F988AB1806D8B
:101AA0008AB9769A6E9881B3806F81BB899880B32A
:101AB0008D7080BB80E58CBD81E08DBD0E94BE0530
:101AC0005F9A0E94BE055E985C98ECE6F6E089E7B6
:101AD00096E024912EBD00000DB407FEFDCF319697
:101AE0008E179F07B1F75C9A81E88093640080911C
:101AF0006500816080936500809164008E7F809393
:101B0000640080917A00806480937A0080917A00EA
:101B100086FDFCCF00917800109179000E94660547
:101B2000AB01BC01C801B0E0A0E0DC019927882727
:101B30008C019D01040F151F261F371FC901B80115
:101B40002091640021602093640061157105810576
:101B5000910511F00E9454100E94A70710920902EB
:101B600010920802109207021092060281ED91E095
:101B70000E9483080E9490080E94A2038FEF9FEFAB
:101B800090931B0280931A02909313028093120287
:101B900090931D0280931C0290931502809314026F
:101BA00090931F0280931E02909317028093160257
:101BB000109223021092220289E0C82ED12CE12C2F
:101BC000F12C02E010E033243394809105028093DD
:101BD00004028FB18095807F669B88601C9B846027
:101BE0008093050220912402309125023A832983B3
:101BF0002230310509F053C00E940510A70196015B
:101C00000E945D1070931902609318020E940510E3
:101C1000A70196010E945D1070931102609310025B
:101C200020911C0230911D0230931B0220931A0256
:101C30002091140230911502309313022093120266
:101C400020911E0230911F0230931D0220931C022E
:101C5000209116023091170230931502209314023E
:101C6000209118023091190230931F0220931E0216
:101C700070931702609316020E94D508809120028B
:101C8000909121020196909321028093200280E09E
:101C900090E0892B09F499CF0E94000094CF88E04E
:101CA0000E942608882331F081E090E0909323027F
:101CB0008093220284E00E942608882331F021E0EC
:101CC00030E0309323022093220280E80E9426080D
:101CD000882331F084E090E09093230280932202E5
:101CE00080E10E942608882331F025E030E030931F
:101CF00023022093220280E40E942608882331F0E8
:101D000083E090E0909323028093220280E20E947D
:101D10002608882321F01093230200932202809149
:101D20002202909123020097B9F429813A8122304E
:101D3000310508F4ACCF20912002309121022330EC
:101D400031050CF0BCC010932502009324021092C0
:101D50002302109222029BCF8130910561F780917E
:101D600020029091210210922302109222020397E6
:101D70002CF4109325020093240289CF89819A8143
:101D8000892B19F40E94D50882CF0E94A7070E94D0
:101D9000900886E390E00E94B2031092090210922C
:101DA000080228E330E03093070220930602609196
:101DB0002002709121026330710564F48DEA91E094
:101DC0006230710511F082E092E00E9483080E9467
:101DD000A2035DCF62507109072E000C880B990B8E
:101DE0000E946A114B015C0160910A0270910B0222
:101DF000072E000C880B990B0E946A1120E030E03E
:101E000048EC52E40E94F611A50194010E94C01012
:101E10000E9432112B017A83698360910C027091C8
:101E20000D02072E000C880B990B0E946A1120E00E
:101E300030E048EC52E40E94F611A50194010E94A2
:101E4000C0100E9432114B017C836B8380EC91E0C7
:101E50000E94830889819A810A9724F481EC91E099
:101E60000E948308C2010E94A50883EF91E00E94AE
:101E700083082B813C812A30310524F481EC91E0E8
:101E80000E948308C4010E94A5088CEF91E00E9483
:101E900083088EEF91E00E94830880912002909148
:101EA00021020C9724F481EC91E00E948308809138
:101EB00020029091210202970E94A50888CF2091CC
:101EC0001A0230911B024091180250911902609140
:101ED000120270911302E0911002F091110210921F
:101EE0000F0210920E028430910579F42417350701
:101EF00021F580910C0290910D02019690930D02B4
:101F000080930C0230920E0218C08530910579F44E
:101F10002417350731F180910C0290910D02019642
:101F200090930D0280930C0230920E021AC0823000
:101F3000910591F424173507E1F66E177F07A1F498
:101F400080910A0290910B02019690930B0280936C
:101F50000A0230920F0208C0039731F424173507A4
:101F6000D1F26E177F0761F71092230210922202BE
:101F700000CF8F929F92AF92BF92CF92DF92EF925B
:101F8000FF92CF93DF93EC01688179818A819B81F5
:101F9000611571058105910521F464E279ED8BE508
:101FA00097E02DE133EF41E050E00E945D104901E0
:101FB0005A019B01AC01A7EAB1E40E947C106B01BD
:101FC0007C01ACEEB4EFA50194010E948A10C60E0C
:101FD000D71EE81EF91EF7FE06C081E0C81AD10818
:101FE000E10880E8F80AC882D982EA82FB82C70148
:101FF000B6019F77DF91CF91FF90EF90DF90CF9068
:10200000BF90AF909F908F9008958F929F92AF92C4
:10201000BF92CF92DF92EF92FF9260910C0170918C
:102020000D0180910E0190910F01611571058105DF
:10203000910521F464E279ED8BE597E02DE133EF32
:1020400041E050E00E945D1049015A019B01AC0142
:10205000A7EAB1E40E947C106B017C01ACEEB4EF06
:10206000A50194010E948A10C60ED71EE81EF91E13
:10207000F7FE06C081E0C81AD108E10880E8F80A36
:10208000C0920C01D0920D01E0920E01F0920F016E
:10209000C701B6019F77FF90EF90DF90CF90BF9080
:1020A000AF909F908F90089560930C0170930D01F5
:1020B00080930E0190930F010895052E97FB1EF457
:1020C00000940E94741057FD07D00E948F1007FCE7
:1020D00003D04EF40C947410509540953095219592
:1020E0003F4F4F4F5F4F0895909580957095619544
:1020F0007F4F8F4F9F4F08950E94B110A59F900D65
:10210000B49F900DA49F800D911D11240895B7FFD9
:102110000C947C100E947C10821B930B0895A1E20A
:102120001A2EAA1BBB1BFD010DC0AA1FBB1FEE1F51
:10213000FF1FA217B307E407F50720F0A21BB30B9C
:10214000E40BF50B661F771F881F991F1A9469F718
:1021500060957095809590959B01AC01BD01CF0174
:102160000895A29FB001B39FC001A39F700D811D70
:102170001124911DB29F700D811D1124911D089590
:102180000E94D4100C94BC110E94B51158F00E940A
:10219000AE1140F029F45F3F29F00C94A5115111C4
:1021A0000C94F0110C94AB110E94CD1168F399239B
:1021B000B1F3552391F3951B550BBB27AA27621743
:1021C0007307840738F09F5F5F4F220F331F441F50
:1021D000AA1FA9F335D00E2E3AF0E0E832D0915084
:1021E0005040E695001CCAF72BD0FE2F29D0660F71
:1021F000771F881FBB1F261737074807AB07B0E8B4
:1022000009F0BB0B802DBF01FF2793585F4F3AF0B9
:102210009E3F510578F00C94A5110C94F0115F3F8E
:10222000E4F3983ED4F3869577956795B795F7953F
:102230009F5FC9F7880F911D9695879597F9089527
:10224000E1E0660F771F881FBB1F621773078407C3
:10225000BA0720F0621B730B840BBA0BEE1F88F7D2
:10226000E09508950E9439116894B1110C94F01111
:1022700008950E94D51188F09F5798F0B92F99279B
:10228000B751B0F0E1F0660F771F881F991F1AF061
:10229000BA95C9F714C0B13091F00E94EF11B1E0C6
:1022A00008950C94EF11672F782F8827B85F39F0C5
:1022B000B93FCCF3869577956795B395D9F73EF4FA
:1022C00090958095709561957F4F8F4F9F4F0895A2
:1022D000E89409C097FB3EF49095809570956195C0
:1022E0007F4F8F4F9F4F9923A9F0F92F96E9BB2776
:1022F0009395F695879577956795B795F111F8CFF2
:10230000FAF4BB0F11F460FF1BC06F5F7F4F8F4F5C
:102310009F4F16C0882311F096E911C0772321F052
:102320009EE8872F762F05C0662371F096E8862FEA
:1023300070E060E02AF09A95660F771F881FDAF741
:10234000880F9695879597F9089597F99F6780E884
:1023500070E060E008959FEF80EC089500240A94F7
:102360001616170618060906089500240A94121670
:102370001306140605060895092E0394000C11F4A3
:10238000882352F0BB0F40F4BF2B11F460FF04C050
:102390006F5F7F4F8F4F9F4F089557FD9058440FA9
:1023A000551F59F05F3F71F04795880F97FB991FB4
:1023B00061F09F3F79F08795089512161306140671
:1023C000551FF2CF4695F1DF08C0161617061806FE
:1023D000991FF1CF86957105610508940895E894D9
:1023E000BB2766277727CB0197F908950E9409122A
:1023F0000C94BC110E94AE1138F00E94B51120F06F
:10240000952311F00C94A5110C94AB1111240C948C
:10241000F0110E94CD1170F3959FC1F3950F50E01C
:10242000551F629FF001729FBB27F00DB11D639F86
:10243000AA27F00DB11DAA1F649F6627B00DA11D2C
:10244000661F829F2227B00DA11D621F739FB00DD2
:10245000A11D621F839FA00D611D221F749F332742
:10246000A00D611D231F849F600D211D822F762FDB
:102470006A2F11249F5750409AF0F1F088234AF0B8
:10248000EE0FFF1FBB1F661F771F881F9150504024
:10249000A9F79E3F510580F00C94A5110C94F01102
:1024A0005F3FE4F3983ED4F3869577956795B795AB
:1024B000F795E7959F5FC1F7FE2B880F911D9695C5
:1024C000879597F9089597FB072E16F4009407D087
:1024D00077FD09D00E94771207FC05D03EF4909555
:1024E00081959F4F0895709561957F4F0895AA1B20
:1024F000BB1B51E107C0AA1FBB1FA617B70710F0EF
:10250000A61BB70B881F991F5A95A9F78095909520
:10251000BC01CD010895EE0FFF1F0590F491E02D51
:062520000994F894FFCFBE
:10252600FFFFFFFF00E100000000000001000000C7
:1025360041424344454647484910063D0668061051
:10254600183D186818102A3D2A682A00C1808100A3
:102556000000000000002004C4054104360487047E
:102566004504630400000000E40649063208310809
:1025760000000000BC074906320831080A20202066
:1025860055503A20202020424F54485F53414D4534
:10259600000A202020444F574E3A2020414C4C5FE1
:1025A60044494646000A20202052494748543A20CA
:1025B60053414D455F4C4554000A2020204C45466A
:1025C600543A202053414D455F504F53004E6F778C
:1025D60020796F752063616E20616E737765720076
:1025E6001A20007269676874200077726F6E672020
:1025F6000057656C636F6D6520746F207468650A9B
:102606006475616C206E2D6261636B207461736BFF
:10261600210A0025202020202041200025002020FE
:042626002009000087
:00000001FF
