:100000000C9478030C94A0030C94A0030C94A0030C
:100010000C94A0030C94A0030C94A0030C94A003D4
:100020000C94A0030C94A0030C946B0A0C94DA0AB1
:100030000C94A0030C94A0030C94A0030C94A003B4
:100040000C94A0030C94A0030C94A0030C94A003A4
:100050000C94A0030C94A0030C94A0030C940C0D1E
:100060000C94A0030C94A0030C94A0030C94A00384
:100070000C94A0030C94A0030C94A0030C94A00374
:100080000C94A0030C94A0030C94A0030C94A00364
:100090000C94A0030C94A0030C94A0030C94A00354
:1000A0000C94A0030C94A0030C94A0030000000087
:1000B000003E5B4F5B3E3E6B4F6B3E1C3E7C3E1CEE
:1000C000183C7E3C181C577D571C1C5E7F5E1C0034
:1000D000183C1800FFE7C3E7FF0018241800FFE7EB
:1000E000DBE7FF30483A060E2629792926407F05AE
:1000F0000507407F05253F5A3CE73C5A7F3E1C1CC4
:1001000008081C1C3E7F14227F22145F5F005F5F83
:1001100006097F017F006689956A6060606060946F
:10012000A2FFA29408047E040810207E2010080874
:100130002A1C08081C2A08081E101010100C1E0C7F
:100140001E0C30383E3830060E3E0E060000000011
:100150000000005F00000007000700147F147F14F8
:10016000242A7F2A1223130864623649562050003D
:1001700008070300001C2241000041221C002A1C29
:100180007F1C2A08083E0808008070300008080814
:100190000808000060600020100804023E51494534
:1001A0003E00427F400072494949462141494D3352
:1001B0001814127F1027454545393C4A49493141B9
:1001C000211109073649494936464949291E000087
:1001D00014000000403400000008142241141414DC
:1001E0001414004122140802015909063E415D59C8
:1001F0004E7C1211127C7F494949363E41414122D1
:100200007F4141413E7F494949417F090909013EFA
:10021000414151737F0808087F00417F4100204021
:10022000413F017F081422417F404040407F021C33
:10023000027F7F0408107F3E4141413E7F0909094A
:10024000063E4151215E7F09192946264949493216
:1002500003017F01033F4040403F1F2040201F3FDC
:100260004038403F63140814630304780403615961
:10027000494D43007F4141410204081020004141A3
:10028000417F04020102044040404040000307084F
:100290000020545478407F2844443838444444284B
:1002A000384444287F385454541800087E090218F2
:1002B000A4A49C787F0804047800447D400020407A
:1002C000403D007F1028440000417F40007C0478BE
:1002D00004787C080404783844444438FC18242406
:1002E0001818242418FC7C08040408485454542486
:1002F00004043F44243C4040207C1C2040201C3C03
:100300004030403C44281028444C9090907C4464F9
:10031000544C44000836410000007700000041368C
:10032000080002010204023C2623263C1EA1A16112
:10033000123A4040207A3854545559215555794144
:100340002154547841215554784020545579400C1B
:100350001E527212395555555939545454593955FC
:100360005454580000457C410002457D420001453F
:100370007C40F0292429F0F0282528F07C545545AC
:10038000002054547C547C0A097F4932494949323F
:100390003248484832324A4848303A4141217A3A54
:1003A00042402078009DA0A07D39444444393D401E
:1003B00040403D3C24FF2424487E4943662B2FFCCB
:1003C0002F2BFF0929F620C0887E09032054547979
:1003D000410000447D413048484A32384040227A4A
:1003E000007A0A0A727D0D19317D2629292F2826C7
:1003F0002929292630484D402038080808080808CF
:100400000808382F10C8ACBA2F102834FA00007B27
:10041000000008142A142222142A1408950022002D
:1004200095AA005500AAAA55AA55AA000000FF00E7
:10043000101010FF00141414FF001010FF00FF1024
:1004400010F010F0141414FC001414F700FF000056
:10045000FF00FF1414F404FC141417101F10101FD5
:10046000101F1414141F00101010F0000000001FC3
:10047000101010101F10101010F010000000FF10CE
:100480001010101010101010FF10000000FF1400CA
:1004900000FF00FF00001F10170000FC04F41414FC
:1004A0001710171414F404F40000FF00F7141414C8
:1004B00014141414F700F7141414171410101F1048
:1004C0001F141414F4141010F010F000001F101F6B
:1004D0000000001F14000000FC140000F010F010D9
:1004E00010FF10FF141414FF141010101F00000050
:1004F00000F010FFFFFFFFFFF0F0F0F0F0FFFFFF54
:100500000000000000FFFF0F0F0F0F0F38444438AA
:10051000447C2A2A3E147E02020606027E027E02E5
:1005200063554941633844443C04407E201E200604
:10053000027E020299A5E7A5991C2A492A1C4C7241
:1005400001724C304A4D4D303048784830BC625AC8
:10055000463D3E494949007E0101017E2A2A2A2A58
:100560002A44445F444440514A444040444A514034
:100570000000FF0103E080FF000008086B6B0836F5
:1005800012362436060F090F060000181800000066
:100590001010003040FF0101001F01011E00191D55
:1005A0001712003C3C3C3C000000000000B0000082
:1005B000A170E150964F26900F1D070C0096690020
:1005C0004AE44A0048444000806810000F99FB8FBD
:1005D0009DBDBBFB77D4D4DF1F1A1AFE7F5D5DFF84
:1005E000805A0000A0A4AA0010BA3400FF5953F3A7
:1005F000FF9B9B9EFFB9B996FF9595D19FF4940FF1
:10060000FC295F91FF1838F8FF9294FFFF95D5F70A
:10061000BFB5DDD7F18F81F1F788C8F779C6467984
:1006200009FD9B090196F800828182805071620069
:100630007756560076763700A2B773010772060028
:100640007827500073347400775176007F55F70097
:1006500047711000324772007364730015A2750071
:1006600061679400009F6060F4F2F6F2D5F08D149B
:10067000A1C881CFD9F1AF2000080B00020202000F
:100680000009040000010202000005240010010519
:100690002401010104240206052406000107058146
:1006A0000310004009040100020A000000070502CF
:1006B0000240000007058302400000040309041201
:1006C000010002EF020140412336800001010203D4
:1006D0000141726475696E6F204C4C430041726435
:1006E00075696E6F204C656F6E6172646F00560D98
:1006F00011241FBECFEFDAE0DEBFCDBF11E0A0E0D6
:10070000B1E0E6ECF6E202C005900D92AA3FB10717
:10071000D9F726E0AAEFB1E001C01D92A23AB207D4
:10072000E1F713E0C8E7D3E004C02197FE010E947F
:100730005B13C737D107C9F70E94960D0C9461135C
:100740000C940000E9E8F2E080E0A0E0B8E000806E
:100750000EBC8111012C1197A0FDFDCF0192B9F7BC
:100760000DB40895AC014770552721E001C0220F58
:100770004A95EAF7FC0183E0F595E7958A95E1F75C
:10078000F695FE2FEE27F795E795E757FD4F91E891
:10079000915031F08191DF011197822B8C93F8CF2A
:1007A0000895FC0180913802882311F13FB7F89435
:1007B00082E08093E9002091F200822F90E01816E9
:1007C000190614F481E090E0882339F0289844E673
:1007D000409337024091F1004083222339F0209169
:1007E000F200211103C02BE62093E8003FBF0895DB
:1007F0008FEF9FEF08952FB7F89483E08093E9007F
:100800009091E800892F807295FF04C09091F200CA
:1008100080E4891B2FBF089580912F0281110DC0A4
:1008200082E080932B0284E080932C0210922E02AF
:1008300010922D0281E080932F028BE292E00895C6
:10084000CF93DF931F92CDB7DEB76983DC01ED91C3
:10085000FC910280F381E02D41E050E0BE016F5F2A
:100860007F4F09950F90DF91CF91089583E080939A
:10087000E9008091F200882319F08AE38093E80070
:1008800008950E94FB0390E00895CF93DF931F9299
:10089000CDB7DEB7FC018485958597FD08C02FEFA5
:1008A0003FEF358724870F90DF91CF910895CE01D8
:1008B00001960E94D103019719F4898190E0F3CF4A
:1008C0008FEF9FEFF0CF0F931F93CF93DF931F9284
:1008D000CDB7DEB78C01FC018485958597FF0BC0F1
:1008E000CE0101960E94D103019771F4898190E0B5
:1008F000F80195878487F801848595850F90DF91AD
:10090000CF911F910F9108958FEF9FEFF1CFFC01D1
:100910008485958597FD0BC09FB7F89482E08093FE
:10092000E9008091F2009FBF90E0019608959FB783
:10093000F89482E08093E9008091F2009FBF90E0FC
:100940000895409125025091260220912302309172
:10095000240242175307B4F49091E8009570E1F334
:100960009091E80092FD19C08093F10080912502DA
:100970009091260201968F739927892B19F48EEF97
:100980008093E80080912502909126020196909331
:1009900026028093250281E0089580E00895EF9279
:1009A000FF920F931F93CF93DF93F82E192FE62E0C
:1009B000042F81E0860F880F0E94A10483E00E942B
:1009C000A104CF2DD12FEC0EFD2EF11CCE15DF058D
:1009D000B9F007FF13C0FE0184910E94A104182FF3
:1009E00080E00E94A104812321968111EFCFDF9145
:1009F000CF911F910F91FF90EF9008958881EDCFD7
:100A000081E0F5CFDF92EF92FF920F931F93CF9388
:100A1000DF93D82E8A01EB017B01E40EF51ECE1583
:100A2000DF0559F0D7FE12C0FE0184910E94A10497
:100A300021968111F4CF0FEF1FEFC801DF91CF9105
:100A40001F910F91FF90EF90DF9008958881EECF76
:100A50000F931F93CF93DF931F92CDB7DEB782E042
:100A6000898342E450E069E776E080E80E9402056D
:100A70000E940C04DC0112960D911C9101151105C8
:100A800089F0D801ED91FC910280F381E02DBE0147
:100A90006F5F7F4FC801099597FD04C0F80100857D
:100AA0001185ECCF89810F90DF91CF911F910F912C
:100AB0000895615030F02091F100FC0120830196EF
:100AC000F8CF289884E68093370208953FB7F894CA
:100AD00080911F0290912002A0912102B0912202E8
:100AE00026B5A89B05C02F3F19F00196A11DB11D89
:100AF0003FBFBA2FA92F982F8827BC01CD01620FC5
:100B0000711D811D911D42E0660F771F881F991F7F
:100B10004A95D1F708958F929F92AF92BF92CF924C
:100B2000DF92EF92FF926B017C010E9466054B0100
:100B30005C01C114D104E104F104B9F00E9466051E
:100B4000681979098A099B09683E734081059105F6
:100B500080F321E0C21AD108E108F10888EE880E7E
:100B600083E0981EA11CB11CE4CFFF90EF90DF90B2
:100B7000CF90BF90AF909F908F90089565E070E008
:100B800080E090E00C948B058F929F92AF92BF9281
:100B9000CF92DF92EF92FF920F931F93CF93DF9349
:100BA0006C017B018A0180910B01882309F45CC0F0
:100BB00080913802882309F457C080912A0280FF6F
:100BC00005C08091E00082608093E000E801B12CD4
:100BD0008AEFA82E93E0892E2AE3922E209711F413
:100BE000BB20D9F10E94FB0381110AC0AA94AA205C
:100BF000D9F161E070E080E090E00E948B05EECFDB
:100C00008C171D0611F00CF08C2F9FB7F894809272
:100C1000E9002091E80025FD02C09FBFDFCF282F0B
:100C200030E0C21BD30BF701815020F0419140937B
:100C3000F100FACFE20EF31EBB2021F09092E80003
:100C4000B12CEBCF8091E80085FDE7CF9092E800D2
:100C5000BB24B394209709F3F3CF5D9884E6809387
:100C60002902101611063CF081E090E0F601938312
:100C7000828310E000E0C801DF91CF911F910F91B6
:100C8000FF90EF90DF90CF90BF90AF909F908F90AC
:100C90000895AF92BF92CF92DF92EF92FF920F939F
:100CA0001F93CF93DF936C017B018B01040F151F02
:100CB000EB015E01AE18BF08C017D10759F069916A
:100CC000D601ED91FC910190F081E02DC6010995CE
:100CD000892B79F7C501DF91CF911F910F91FF907B
:100CE000EF90DF90CF90BF90AF9008956F927F927A
:100CF0008F929F92AF92BF92CF92DF92EF92FF922C
:100D00000F931F93CF93DF934C017B01C22F102FC2
:100D100098E0A92EB12C642E669466946694712C8A
:100D2000CA0187709927892B79F5D40117962D91DF
:100D30003C91C7019927B9010E943313269DF00108
:100D4000279DF00D369DF00D11248E0F9F1FD401AD
:100D50001596ED91FC91E80FF91F2081111112C039
:100D6000C095C223C083DF91CF911F910F91FF9057
:100D7000EF90DF90CF90BF90AF909F908F907F903B
:100D80006F900895C22BEECFD0E04770C42ED12CC7
:100D900083E0660C771C8A95E1F79E0101C0220F63
:100DA0004A95EAF7012FA301B701C4010E94760614
:100DB000A301485F5F4FC5018C199D0902C0D595FD
:100DC000C7958A95E2F7A7CF5F926F927F928F9235
:100DD0009F92AF92BF92CF92DF92EF92FF920F93CA
:100DE0001F93CF93DF93EC016A30F1F48D859E85DC
:100DF0009C878B878C892F853889820F932F911D33
:100E0000988B8F8781E090E0DF91CF911F910F91B8
:100E1000FF90EF90DF90CF90BF90AF909F908F901A
:100E20007F906F905F900895AB84BC84693031F4FB
:100E300029E0A20EB11CBC86AB86E4CF3DEFA31621
:100E40003FEFB3060CF45DC08F819885A816B906F4
:100E50000CF057C0CF84D8888DEFC8168FEFD80616
:100E60000CF44FC089859A85C816D9060CF049C084
:100E7000603208F46FE780EE860F9FE9960F9A3193
:100E800018F49FEFC91AD90A8C3011F08B3119F47C
:100E90002FEFC21AD20A869534E0839FC001112435
:100EA0009C0124553A4F7901912C812C162F1170F9
:100EB000F701E80DF91D549011112DC0352D3F702B
:100EC000532E3501680C791C8C81882361F001E078
:100ED00089899A89892B09F000E02FE0A601B301E6
:100EE000CE010E9476060989252DA601B301CE0107
:100EF0000E9476068FEF881A980A94E0891691046A
:100F0000B9F68B8990E004962B853C85820F931F60
:100F10009C878B8777CF52948FE05822D2CF20E1E5
:100F200091E061FD94E060FD990F62FD9295687F0C
:100F3000269FD0011124A80FA757BD4F8C9140FFC9
:100F400003C0892B8C93089590958923FBCF80E073
:100F5000E9E8F2E081118FEF00248193819381937E
:100F600081930394D1F71092FB011092FA01109231
:100F7000FD011092FC0108958F929F92AF92BF9253
:100F8000CF92DF92EF92FF920F931F93CF93DF9355
:100F90006D3089F0C090FA01D090FB016A30D1F435
:100FA0001092FD011092FC0188E0C80ED11CD09275
:100FB000FB01C092FA0181E090E0DF91CF911F9197
:100FC0000F91FF90EF90DF90CF90BF90AF909F90E8
:100FD0008F9008950091FC011091FD01E5E06E9F56
:100FE000E0011124C455DF4F5801F12CF5E0E12C4C
:100FF000FF1629F0CE010196FE01E490EC01912C40
:10100000812CF0E8AF16B10458F4B601680D791DD3
:101010006034710528F44E2D4170C5010E948F0780
:10102000E6948FEF881A980AE8E08E16910449F743
:10103000F394FFEFAF1ABF0A86E0F812D7CF0A5F2A
:101040001F4F1093FD010093FC01B5CF9091FE015D
:10105000982329F49091FF01982381E009F480E01E
:101060000895089590E080E00895FC01019000202B
:10107000E9F73197AF01481B590BBC018EE996E0A7
:101080000C9449068F929F92AF92BF920F931F9339
:10109000CF93DF93CDB7DEB7A1970FB6F894DEBF3D
:1010A0000FBECDBF19A2423008F44AE08E010F5D99
:1010B0001F4F842E912CB12CA12CA50194010E94CC
:1010C000C610E62FB901CA01EA30F4F4E05DD80198
:1010D000EE938D01232B242B252B79F790E080E0D4
:1010E000109719F0CD010E943508A1960FB6F8941B
:1010F000DEBF0FBECDBFDF91CF911F910F91BF908B
:10110000AF909F908F900895E95CE1CF0C943508E3
:101110008CE591E00E94860881E791E00E948608B4
:1011200085E891E00E94860889E991E00E9486089E
:101130000E94A203109219021092180208954F9271
:101140005F926F927F928F929F92AF92BF92CF9257
:10115000DF92EF92FF920F931F93CF936B017C016D
:10116000742EAC019B010E942E13882399F08DEA06
:1011700091E0CF911F910F91FF90EF90DF90CF9072
:10118000BF90AF909F908F907F906F905F904F90A7
:101190000C94350846015701E894B7F82FEF3FEF5C
:1011A0004FE75FE7C501B4010E942E1381110DC006
:1011B0002FEF3FEF4FE75FE7C501B4010E946411D5
:1011C00018161CF481EB91E0D4CF2FEF3FEF4FE7DF
:1011D0005FE4C701B6010E94BC1218161CF485EB2F
:1011E00091E0C7CF2FEF3FEF4FE75FECC701B601AC
:1011F0000E94641187FDF3CF20E030E0A901C70110
:10120000B6010E94641110E000E087FF0AC06DE2A1
:101210008EE996E00E94BC078C01F7FAF094F7F88B
:10122000F094C0E060E070E080E09FE37C1641F065
:1012300020E030E040E251E40E946911CF5FF6CF38
:10124000A70196010E94F8102B013C010E94DB11BE
:101250004B015C014AE00E9442087C01E00EF11E55
:10126000CC23C1F1C501B4010E940A129B01AC015B
:10127000C301B2010E94F7104B015C016EE28EE9DE
:1012800096E00E94BC07E80EF91EC15018F120E05C
:1012900030E040E251E4C501B4010E94C1122B01CB
:1012A0003C010E94DB114B01B12CA12C4AE0C5018D
:1012B000B4010E944208E80EF91EC501B4010E9463
:1012C0000A129B01AC01C301B2010E94F7104B014D
:1012D0005C01DBCFC701CF911F910F91FF90EF9081
:1012E000DF90CF90BF90AF909F908F907F906F9046
:1012F0005F904F9008958F929F92AF92BF92CF923E
:10130000DF92EF92FF92CF93DF930E94A70781E0D5
:1013100090E00E94B20382E190E00E94B20384E276
:1013200090E00E94B20386E390E00E94B203C1E025
:10133000D0E041E0BE018AE290E00E948F07219652
:10134000C733D105B1F7C1E0D0E041E0BE0184E58B
:1013500090E00E948F072196C733D105B1F7E09145
:101360000402F0910502EE0FFF1FE75EFE4F818140
:1013700090E0208130E03093FD012093FC019093B8
:10138000FB018093FA01E0910C02F0910D02E05F05
:10139000FE4F60818EE996E00E94BC071092FD012D
:1013A0001092FC0189E390E09093FB018093FA0195
:1013B000609114027091150263307105E4F489EBB9
:1013C00091E06230710511F089EF91E00E9486088A
:1013D0000E94A20381E090E090931902809318028A
:1013E000DF91CF91FF90EF90DF90CF90BF90AF90C3
:1013F0009F908F90089562507109072E000C880B02
:10140000990B0E940C126B017C016091000270919B
:101410000102072E000C880B990B0E940C1220E091
:1014200030E048EC52E40E94C112A70196010E94EC
:1014300069114B015C016091020270910302072E59
:10144000000C880B990B0E940C1220E030E048EC55
:1014500052E40E94C112A70196010E9469116B011A
:101460007C018CEC91E00E94860842E0C501B40149
:101470000E949F088FEC91E00E94860842E0C7011D
:10148000B6010E949F0883ED91E00E94860885EDD9
:1014900091E00E948608C0901402D090150282E06C
:1014A000C81AD1080D2C000CEE08FF084AE0C7014D
:1014B000B601F7FE0DC06DE28EE996E00E94BC0712
:1014C00066277727CB016C197D098E099F094AE0B1
:1014D0000E9442087DCF1F920F920FB60F921124E7
:1014E0008F939F938091E1009091E100937F90937F
:1014F000E10083FF0FC01092E90091E09093EB00B0
:101500001092EC0092E39093ED001092380298E074
:101510009093F00082FF22C093E09093E9009091B5
:10152000F200992319F09AE39093E8009091290230
:10153000992341F0909129029150909329029111A1
:1015400001C05D9A90913702992341F09091370242
:10155000915090933702911101C0289A84FF18C0CE
:101560008091E2008E7E81608093E2008091E100B4
:101570008F7E8093E10080912A028E7E806180932D
:101580002A029F918F910F900FBE0F901F90189578
:1015900080FFF7CF8091E2008E7E80618093E20031
:1015A0008091E1008E7E8093E10080912A028E7E00
:1015B0008160E5CF1F920F920FB60F921124CF9248
:1015C000DF92EF92FF920F931F932F933F934F93CE
:1015D0005F936F937F938F939F93AF93BF93EF939B
:1015E000FF93CF93DF93CDB7DEB76C97DEBFCDBF50
:1015F0001092E9008091E80083FF25C068E0CE01E9
:1016000045960E94590582EF8093E8008D8987FFF7
:1016100039C09091E80090FFFCCF982F907609F0A8
:1016200034C19E894F89588D2F89F88C911131C012
:10163000803861F5809128028093F1001092F100CA
:101640008EEF8093E8006C960FB6F894DEBF0FBE65
:10165000CDBFDF91CF91FF91EF91BF91AF919F915E
:101660008F917F916F915F914F913F912F911F913A
:101670000F91FF90EF90DF90CF900F900FBE0F90E3
:101680001F9018959EEF9093E800C7CF1092F1003D
:10169000D5CF913059F48111D3CF4130510581F626
:1016A000809128028D7F80932802CACF933049F41D
:1016B0008111C6CF4130510519F680912802826010
:1016C000F2CF953041F48091E80080FFFCCF206894
:1016D0002093E300B5CF963009F0A9C00B8D1C8D87
:1016E00022E01092E9001092260210922502F212D6
:1016F0002EC010922402109223020E9428051F82FD
:1017000099E09983FA8291E09E8390EA98879AEF14
:1017100099872091250230912602275F3F4F3C8315
:101720002B838D831092E9001092260210922502DD
:10173000109324020093230249E050E0BE016F5F42
:101740007F4F80E00E9402050E94280579CF109308
:101750002402009323020E940C04DC0112960D91D6
:101760001C910115110509F451C1D801ED91FC91AD
:101770000480F581E02DBE016B5E7F4FC8010995A5
:10178000009709F03EC1F80100851185EACFF3E02A
:10179000FF120EC08F89882309F440C0823061F4A3
:1017A00040E860E18DED96E00E94CF04811148CFC2
:1017B00081E28093EB0047CF813029F440E86BE071
:1017C00081ED96E0F1CF833099F70E940C04DC01A3
:1017D0001296ED90FC908E010F5F1F4F6801E1148F
:1017E000F10479F0D701ED91FC910680F781E02DAD
:1017F000B801C7010995080F111DF701E084F184B4
:10180000EECFD8011C92F60101900020E9F7319744
:10181000BF016C197D0940E0C601C6CF6BEB76E0D5
:10182000FB01449150E080E80E94020509CF973007
:1018300009F4BECF983021F481E08093F10000CF0D
:10184000993009F0FDCE837009F0B2CFECE2F1E0FF
:1018500081E031E096E32191222371F08093E90049
:101860003093EB00DF0111972C912093EC009093C3
:10187000ED008F5F873079F78EE78093EA00109252
:10188000EA008F8980933802DBCE8B8D9C8D10927D
:10189000E900109226021092250290932402809370
:1018A0002302898D811192C08E899D89913A49F4D4
:1018B000813209F07DCF47E050E064E071E080E0E4
:1018C000B3CF913209F074CF833269F48F89988D48
:1018D000B0E0A0E08093000190930101A093020189
:1018E000B0930301ADCE803269F48091E80082FFAD
:1018F000FCCF67E084E091E00E9459058BEF809374
:10190000E8009ECE823209F09BCE8F8980930B0136
:10191000EEEFFFE7859194918B3F9C4D51F1E0E014
:10192000F8E08091040190910501A0910601B09129
:101930000701803B9440A105B105F1F480910B01B2
:1019400080FD1AC0EE3F8AE0F80789F587E797E740
:1019500091838083809160008093270288E19BE0DF
:101960000FB6F894A895809360000FBE9093600026
:1019700067CEEEEFFAE0D5CF808191818737974728
:1019800009F05ECEA8958091600088618093600028
:101990008091270280936000EE3F2AE0F20789F0F1
:1019A0008091FE0A9091FF0A9183808349CE8081C5
:1019B00091818737980751F29093FF0A8093FE0A2E
:1019C000C5CF1092FF0A1092FE0A3ACE0E940C0474
:1019D000DC0112960D911C910115110509F4E8CE58
:1019E000D801ED91FC910190F081E02DBE016B5E7C
:1019F0007F4FC8010995811123CEF801008511851B
:101A0000EBCF181619060CF41BCED2CEF1E0FF1264
:101A1000BECE6FEB76E004CF1F920F920FB60F92FF
:101A200011242F933F938F939F93AF93BF938091F4
:101A30001B0290911C02A0911D02B0911E023091D8
:101A40001A0223E0230F2D3758F50196A11DB11D71
:101A500020931A0280931B0290931C02A0931D02F4
:101A6000B0931E0280911F0290912002A09121024A
:101A7000B09122020196A11DB11D80931F02909387
:101A80002002A0932102B0932202BF91AF919F91B7
:101A90008F913F912F910F900FBE0F901F9018952F
:101AA00026E8230F0296A11DB11DD2CFE9E3F2E093
:101AB0001382128288EE93E0A0E0B0E084839583E5
:101AC000A683B78386E391E0918380838FEF9FEFB6
:101AD00095878487EEE9F6E01382128284E591E02F
:101AE00091838083E9E8F6E01382128288E491E032
:101AF0009183808389E892E09683858380E890E0F3
:101B00009087878380E490E09287818785E0848B4B
:101B100081E0838B16861586108A178614861386B5
:101B200081E090E0928B818B14820895789484B543
:101B3000826084BD84B5816084BD85B5826085BDC9
:101B400085B5816085BD80916E00816080936E0057
:101B50001092810080918100826080938100809149
:101B600081008160809381008091800081608093FA
:101B7000800080919100826080939100809191001B
:101B800081608093910080919000816080939000AB
:101B90008091C10084608093C1008091C100826007
:101BA0008093C1008091C10081608093C1008091C9
:101BB000C30081608093C3008091C00082608093E5
:101BC000C0008091C20081608093C20080917A0041
:101BD000846080937A0080917A00826080937A009A
:101BE00080917A00816080937A0080917A00806889
:101BF00080937A00109238021092280210922A02E2
:101C00008091D70081608093D70080EA8093D800CC
:101C100089B5806189BD89B5826089BD09B400FE3E
:101C2000FDCF61E070E080E090E00E948B05809144
:101C3000D8008F7C80618093D8008091E000807F05
:101C40008093E0008091E1008E7E8093E1008DE042
:101C50008093E200559A209A81EC80937C0085B1B4
:101C6000806F85B984B1877E84B984B1876E84B969
:101C70005E9A5F988AB1806D8AB9769A6E9881B3C0
:101C8000806F81BB899880B38D7080BB80E58CBDEF
:101C900081E08DBD0E94BE055F9A0E94BE055E98E0
:101CA0005C98ECE6F6E089E796E024912EBD000012
:101CB0000DB407FEFDCF31968E179F07B1F75C9AE2
:101CC00081E8809364008091650081608093650065
:101CD000809164008E7F8093640080917A0080649C
:101CE00080937A0080917A0086FDFCCFC0917800C5
:101CF000D09179000E946605AB01BC01CE01B0E035
:101D0000A0E0DC01992788278C019D01040F151F95
:101D1000261F371FC901B80120916400216020935C
:101D20006400611571058105910511F00E948B1009
:101D30000E94A7071092FD011092FC011092FB0176
:101D40001092FA0188ED91E00E9486080E948808AE
:101D50008FEF9FEF90930F0280930E0290930702F4
:101D600080930602909311028093100290930902CF
:101D700080930802909313028093120290930B02B7
:101D800080930A02109217021092160289E0882EA0
:101D9000912CA12CB12C90E0292E90E0392EC2E09C
:101DA000D0E023E0422E512C35E0632E712C44E02C
:101DB000C42ED12CEE24E394F12C8091FF0180936A
:101DC000FE018FB18095807F669B88601C9B84603C
:101DD0008093FF0100911802109119020230110541
:101DE00009F052C00E943C10A50194010E94941079
:101DF00070930D0260930C020E943C10A5019401A7
:101E00000E949410709305026093040220911002C6
:101E10003091110230930F0220930E02209108029C
:101E2000309109023093070220930602209112029A
:101E300030911302309311022093100220910A0274
:101E400030910B02309309022093080220910C027A
:101E500030910D02309313022093120270930B0203
:101E600060930A020E947B098091140290911502EE
:101E7000019690931502809314022114310409F401
:101E80009CCF0E94000099CF88E00E9426088823FA
:101E900021F0F0921702E092160284E00E942608D8
:101EA000882321F0F0921702E092160280E80E9447
:101EB0002608882321F0D0921702C092160280E1F2
:101EC0000E942608882321F0709217026092160261
:101ED00080E40E942608882321F050921702409245
:101EE000160280E20E942608882321F0D093170270
:101EF000C09316028091160290911702009721F567
:101F00000230110508F4B9CF20910E0230910F0272
:101F100040910C0250910D026091060270910702EF
:101F2000E0910402F09105028430910549F52417EF
:101F30003507E1F58091020290910302019690939A
:101F400003028093020232C081309105E9F61092BB
:101F500017021092160280911402909115020397B5
:101F60002CF4D0931902C093180287CF012B19F4D7
:101F70000E947B0982CF0E94A7070E9488087DCF1C
:101F80008530910569F42417350711F1809102021B
:101F9000909103020196909303028093020218C06D
:101FA0008230910581F42417350721F66E177F07DB
:101FB00091F48091000290910102019690930102A8
:101FC0008093000208C0039731F424173507F1F21B
:101FD0006E177F0771F71092170210921602C1CF89
:101FE0008F929F92AF92BF92CF92DF92EF92FF9229
:101FF000CF93DF93EC01688179818A819B816115A0
:1020000071058105910521F464E279ED8BE597E096
:102010002DE133EF41E050E00E94941049015A0154
:102020009B01AC01A7EAB1E40E94B3106B017C01F3
:10203000ACEEB4EFA50194010E94C110C60ED71EEC
:10204000E81EF91EF7FE06C081E0C81AD108E108B3
:1020500080E8F80AC882D982EA82FB82C701B60109
:102060009F77DF91CF91FF90EF90DF90CF90BF905F
:10207000AF909F908F9008958F929F92AF92BF9252
:10208000CF92DF92EF92FF9260910C0170910D015F
:1020900080910E0190910F016115710581059105E7
:1020A00021F464E279ED8BE597E02DE133EF41E037
:1020B00050E00E94941049015A019B01AC01A7EA2B
:1020C000B1E40E94B3106B017C01ACEEB4EFA5014A
:1020D00094010E94C110C60ED71EE81EF91EF7FE1D
:1020E00006C081E0C81AD108E10880E8F80AC09269
:1020F0000C01D0920D01E0920E01F0920F01C70188
:10210000B6019F77FF90EF90DF90CF90BF90AF9098
:102110009F908F90089560930C0170930D018093B0
:102120000E0190930F010895052E97FB1EF4009465
:102130000E94AB1057FD07D00E94C61007FC03D0C9
:102140004EF40C94AB1050954095309521953F4F2F
:102150004F4F5F4F089590958095709561957F4F93
:102160008F4F9F4F08950E94E810A59F900DB49F38
:10217000900DA49F800D911D11240895B7FF0C941C
:10218000B3100E94B310821B930B0895A1E21A2E84
:10219000AA1BBB1BFD010DC0AA1FBB1FEE1FFF1F0B
:1021A000A217B307E407F50720F0A21BB30BE40B5B
:1021B000F50B661F771F881F991F1A9469F76095A2
:1021C0007095809590959B01AC01BD01CF0108955C
:1021D000A29FB001B39FC001A39F700D811D112468
:1021E000911DB29F700D811D1124911D08955058AD
:1021F000BB27AA270E940F110C9482120E9474120E
:1022000038F00E947B1220F039F49F3F19F426F435
:102210000C9471120EF4E095E7FB0C946B12E92F0D
:102220000E94931258F3BA17620773078407950741
:1022300020F079F4A6F50C94B5120EF4E0950B2E6F
:10224000BA2FA02D0B01B90190010C01CA01A00108
:102250001124FF27591B99F0593F50F4503E68F163
:102260001A16F040A22F232F342F4427585FF3CFA4
:10227000469537952795A795F0405395C9F77EF475
:102280001F16BA0B620B730B840BBAF09150A1F0BE
:10229000FF0FBB1F661F771F881FC2F70EC0BA0F44
:1022A000621F731F841F48F4879577956795B795CC
:1022B000F7959E3F08F0B0CF9395880F08F09927C7
:1022C000EE0F9795879508950E94471208F481E0D4
:1022D00008950E947D110C9482120E947B1258F086
:1022E0000E94741240F029F45F3F29F00C946B12A5
:1022F00051110C94B6120C9471120E94931268F34F
:102300009923B1F3552391F3951B550BBB27AA27AE
:1023100062177307840738F09F5F5F4F220F331FE8
:10232000441FAA1FA9F335D00E2E3AF0E0E832D0B0
:1023300091505040E695001CCAF72BD0FE2F29D0B3
:10234000660F771F881FBB1F261737074807AB0785
:10235000B0E809F0BB0B802DBF01FF2793585F4FFA
:102360003AF09E3F510578F00C946B120C94B61223
:102370005F3FE4F3983ED4F3869577956795B795DC
:10238000F7959F5FC9F7880F911D9695879597F9E7
:102390000895E1E0660F771F881FBB1F6217730760
:1023A0008407BA0720F0621B730B840BBA0BEE1F75
:1023B00088F7E09508950E949B1288F09F5798F047
:1023C000B92F9927B751B0F0E1F0660F771F881F3A
:1023D000991F1AF0BA95C9F714C0B13091F00E9454
:1023E000B512B1E008950C94B512672F782F8827A5
:1023F000B85F39F0B93FCCF3869577956795B3957B
:10240000D9F73EF490958095709561957F4F8F4FE9
:102410009F4F0895E89409C097FB3EF490958095EE
:10242000709561957F4F8F4F9F4F9923A9F0F92F9A
:1024300096E9BB279395F695879577956795B79518
:10244000F111F8CFFAF4BB0F11F460FF1BC06F5FFE
:102450007F4F8F4F9F4F16C0882311F096E911C010
:10246000772321F09EE8872F762F05C0662371F031
:1024700096E8862F70E060E02AF09A95660F771F45
:10248000881FDAF7880F9695879597F90895990F21
:102490000008550FAA0BE0E8FEEF16161706E8072E
:1024A000F907C0F012161306E407F50798F0621B4F
:1024B000730B840B950B39F40A2661F0232B242B24
:1024C000252B21F408950A2609F4A140A6958FEF43
:1024D000811D811D089597F99F6780E870E060E095
:1024E00008959FEF80EC089500240A9416161706AD
:1024F00018060906089500240A94121613061406F5
:1025000005060895092E0394000C11F4882352F057
:10251000BB0F40F4BF2B11F460FF04C06F5F7F4F0F
:102520008F4F9F4F089557FD9058440F551F59F0F6
:102530005F3F71F04795880F97FB991F61F09F3FB0
:1025400079F087950895121613061406551FF2CFD9
:102550004695F1DF08C0161617061806991FF1CF29
:1025600086957105610508940895E894BB27662750
:102570007727CB0197F908950E94471208F48FEF4F
:1025800008950E94D4120C9482120E94741238F0A2
:102590000E947B1220F0952311F00C946B120C9486
:1025A000711211240C94B6120E94931270F3959F2D
:1025B000C1F3950F50E0551F629FF001729FBB273A
:1025C000F00DB11D639FAA27F00DB11DAA1F649FD6
:1025D0006627B00DA11D661F829F2227B00DA11D89
:1025E000621F739FB00DA11D621F839FA00D611D0F
:1025F000221F749F3327A00D611D231F849F600D30
:10260000211D822F762F6A2F11249F5750409AF058
:10261000F1F088234AF0EE0FFF1FBB1F661F771FE4
:10262000881F91505040A9F79E3F510580F00C94AF
:102630006B120C94B6125F3FE4F3983ED4F3869588
:1026400077956795B795F795E7959F5FC1F7FE2B4F
:10265000880F911D9695879597F908950E944712C6
:10266000880B990B089597FB072E16F4009407D05A
:1026700077FD09D00E94471307FC05D03EF49095E2
:1026800081959F4F0895709561957F4F0895AA1B7E
:10269000BB1B51E107C0AA1FBB1FA617B70710F04D
:1026A000A61BB70B881F991F5A95A9F7809590957F
:1026B000BC01CD010895EE0FFF1F0590F491E02DB0
:0626C0000994F894FFCF1D
:1026C600FFFFFFFF00E10000000000000100000026
:1026D60041424344454647484910063D06680610B0
:1026E600183D186818102A3D2A682A00C180810002
:1026F6000000000000002004C405410436048704DD
:102706004504630400000000E40649063208310867
:1027160000000000BC074906320831080A202020C4
:1027260055503A20202020424F54485F53414D4592
:10273600000A202020444F574E3A2020414C4C5F3F
:1027460044494646000A20202052494748543A2028
:1027560053414D455F4C4554000A2020204C4546C8
:10276600543A202053414D455F504F53006E616EE1
:1027760000696E66006F7666004E6F7720796F751A
:102786002063616E20616E73776572001A200020E7
:10279600412000250020200057656C636F6D652081
:1027A600746F207468650A6475616C206E2D6261B1
:0A27B600636B207461736B210A004D
:00000001FF
